{
  "_format": "hh-sol-artifact-1",
  "contractName": "SeedTraceability",
  "sourceName": "contracts/blockchain.sol",
  "abi": [
    {
      "inputs": [],
      "stateMutability": "nonpayable",
      "type": "constructor"
    },
    {
      "anonymous": false,
      "inputs": [
        {
          "indexed": false,
          "internalType": "bytes32",
          "name": "batchId",
          "type": "bytes32"
        },
        {
          "indexed": false,
          "internalType": "address",
          "name": "manufacturer",
          "type": "address"
        }
      ],
      "name": "BatchCreated",
      "type": "event"
    },
    {
      "anonymous": false,
      "inputs": [
        {
          "indexed": false,
          "internalType": "bytes32",
          "name": "batchId",
          "type": "bytes32"
        },
        {
          "indexed": false,
          "internalType": "address",
          "name": "distributor",
          "type": "address"
        }
      ],
      "name": "DistributorDispatched",
      "type": "event"
    },
    {
      "anonymous": false,
      "inputs": [
        {
          "indexed": false,
          "internalType": "bytes32",
          "name": "batchId",
          "type": "bytes32"
        },
        {
          "indexed": false,
          "internalType": "address",
          "name": "distributor",
          "type": "address"
        }
      ],
      "name": "DistributorReceived",
      "type": "event"
    },
    {
      "anonymous": false,
      "inputs": [
        {
          "indexed": false,
          "internalType": "bytes32",
          "name": "batchId",
          "type": "bytes32"
        },
        {
          "indexed": false,
          "internalType": "address",
          "name": "retailer",
          "type": "address"
        }
      ],
      "name": "RetailerReceived",
      "type": "event"
    },
    {
      "anonymous": false,
      "inputs": [
        {
          "indexed": false,
          "internalType": "bytes32",
          "name": "batchId",
          "type": "bytes32"
        },
        {
          "indexed": false,
          "internalType": "address",
          "name": "farmer",
          "type": "address"
        }
      ],
      "name": "ReviewSubmitted",
      "type": "event"
    },
    {
      "inputs": [
        {
          "internalType": "address",
          "name": "_addr",
          "type": "address"
        }
      ],
      "name": "addDistributor",
      "outputs": [],
      "stateMutability": "nonpayable",
      "type": "function"
    },
    {
      "inputs": [
        {
          "internalType": "address",
          "name": "_addr",
          "type": "address"
        }
      ],
      "name": "addManufacturer",
      "outputs": [],
      "stateMutability": "nonpayable",
      "type": "function"
    },
    {
      "inputs": [
        {
          "internalType": "address",
          "name": "_addr",
          "type": "address"
        }
      ],
      "name": "addRetailer",
      "outputs": [],
      "stateMutability": "nonpayable",
      "type": "function"
    },
    {
      "inputs": [
        {
          "internalType": "bytes32",
          "name": "",
          "type": "bytes32"
        }
      ],
      "name": "batchStage",
      "outputs": [
        {
          "internalType": "enum SeedTraceability.Stage",
          "name": "",
          "type": "uint8"
        }
      ],
      "stateMutability": "view",
      "type": "function"
    },
    {
      "inputs": [
        {
          "internalType": "bytes32",
          "name": "_batchId",
          "type": "bytes32"
        },
        {
          "internalType": "string",
          "name": "_seedName",
          "type": "string"
        },
        {
          "internalType": "string",
          "name": "_seedVariety",
          "type": "string"
        },
        {
          "internalType": "string",
          "name": "_cropType",
          "type": "string"
        }
      ],
      "name": "createBatch",
      "outputs": [],
      "stateMutability": "nonpayable",
      "type": "function"
    },
    {
      "inputs": [
        {
          "internalType": "bytes32",
          "name": "_batchId",
          "type": "bytes32"
        },
        {
          "internalType": "uint8",
          "name": "_transportMode",
          "type": "uint8"
        },
        {
          "internalType": "string",
          "name": "_vehicle",
          "type": "string"
        }
      ],
      "name": "distributorDispatch",
      "outputs": [],
      "stateMutability": "nonpayable",
      "type": "function"
    },
    {
      "inputs": [
        {
          "internalType": "bytes32",
          "name": "",
          "type": "bytes32"
        }
      ],
      "name": "distributorDispatchData",
      "outputs": [
        {
          "internalType": "uint256",
          "name": "dispatchDate",
          "type": "uint256"
        },
        {
          "internalType": "uint8",
          "name": "transportMode",
          "type": "uint8"
        },
        {
          "internalType": "string",
          "name": "vehicleNumber",
          "type": "string"
        },
        {
          "internalType": "address",
          "name": "distributor",
          "type": "address"
        }
      ],
      "stateMutability": "view",
      "type": "function"
    },
    {
      "inputs": [
        {
          "internalType": "bytes32",
          "name": "_batchId",
          "type": "bytes32"
        },
        {
          "internalType": "string",
          "name": "_warehouse",
          "type": "string"
        }
      ],
      "name": "distributorReceive",
      "outputs": [],
      "stateMutability": "nonpayable",
      "type": "function"
    },
    {
      "inputs": [
        {
          "internalType": "bytes32",
          "name": "",
          "type": "bytes32"
        }
      ],
      "name": "distributorReceiveData",
      "outputs": [
        {
          "internalType": "uint256",
          "name": "receivedDate",
          "type": "uint256"
        },
        {
          "internalType": "string",
          "name": "warehouseLocation",
          "type": "string"
        },
        {
          "internalType": "address",
          "name": "distributor",
          "type": "address"
        }
      ],
      "stateMutability": "view",
      "type": "function"
    },
    {
      "inputs": [
        {
          "internalType": "address",
          "name": "",
          "type": "address"
        }
      ],
      "name": "distributors",
      "outputs": [
        {
          "internalType": "bool",
          "name": "",
          "type": "bool"
        }
      ],
      "stateMutability": "view",
      "type": "function"
    },
    {
      "inputs": [
        {
          "internalType": "bytes32",
          "name": "",
          "type": "bytes32"
        }
      ],
      "name": "farmerReview",
      "outputs": [
        {
          "internalType": "string",
          "name": "farmerName",
          "type": "string"
        },
        {
          "internalType": "uint8",
          "name": "rating",
          "type": "uint8"
        },
        {
          "internalType": "string",
          "name": "review",
          "type": "string"
        },
        {
          "internalType": "address",
          "name": "farmer",
          "type": "address"
        }
      ],
      "stateMutability": "view",
      "type": "function"
    },
    {
      "inputs": [
        {
          "internalType": "bytes32",
          "name": "_batchId",
          "type": "bytes32"
        }
      ],
      "name": "getFullBatchHistory",
      "outputs": [
        {
          "components": [
            {
              "components": [
                {
                  "internalType": "string",
                  "name": "seedName",
                  "type": "string"
                },
                {
                  "internalType": "string",
                  "name": "seedVariety",
                  "type": "string"
                },
                {
                  "internalType": "string",
                  "name": "cropType",
                  "type": "string"
                },
                {
                  "internalType": "uint256",
                  "name": "manufacturingDate",
                  "type": "uint256"
                },
                {
                  "internalType": "address",
                  "name": "manufacturer",
                  "type": "address"
                }
              ],
              "internalType": "struct SeedTraceability.ManufacturerData",
              "name": "manufacturer",
              "type": "tuple"
            },
            {
              "components": [
                {
                  "internalType": "uint256",
                  "name": "receivedDate",
                  "type": "uint256"
                },
                {
                  "internalType": "string",
                  "name": "warehouseLocation",
                  "type": "string"
                },
                {
                  "internalType": "address",
                  "name": "distributor",
                  "type": "address"
                }
              ],
              "internalType": "struct SeedTraceability.DistributorReceive",
              "name": "distributorReceive",
              "type": "tuple"
            },
            {
              "components": [
                {
                  "internalType": "uint256",
                  "name": "dispatchDate",
                  "type": "uint256"
                },
                {
                  "internalType": "uint8",
                  "name": "transportMode",
                  "type": "uint8"
                },
                {
                  "internalType": "string",
                  "name": "vehicleNumber",
                  "type": "string"
                },
                {
                  "internalType": "address",
                  "name": "distributor",
                  "type": "address"
                }
              ],
              "internalType": "struct SeedTraceability.DistributorDispatch",
              "name": "distributorDispatch",
              "type": "tuple"
            },
            {
              "components": [
                {
                  "internalType": "uint256",
                  "name": "receivedDate",
                  "type": "uint256"
                },
                {
                  "internalType": "uint256",
                  "name": "sellingPrice",
                  "type": "uint256"
                },
                {
                  "internalType": "address",
                  "name": "retailer",
                  "type": "address"
                }
              ],
              "internalType": "struct SeedTraceability.RetailerData",
              "name": "retailer",
              "type": "tuple"
            },
            {
              "components": [
                {
                  "internalType": "string",
                  "name": "farmerName",
                  "type": "string"
                },
                {
                  "internalType": "uint8",
                  "name": "rating",
                  "type": "uint8"
                },
                {
                  "internalType": "string",
                  "name": "review",
                  "type": "string"
                },
                {
                  "internalType": "address",
                  "name": "farmer",
                  "type": "address"
                }
              ],
              "internalType": "struct SeedTraceability.FarmerReview",
              "name": "review",
              "type": "tuple"
            },
            {
              "internalType": "enum SeedTraceability.Stage",
              "name": "currentStage",
              "type": "uint8"
            }
          ],
          "internalType": "struct SeedTraceability.FullBatchHistory",
          "name": "",
          "type": "tuple"
        }
      ],
      "stateMutability": "view",
      "type": "function"
    },
    {
      "inputs": [
        {
          "internalType": "bytes32",
          "name": "",
          "type": "bytes32"
        }
      ],
      "name": "manufacturerData",
      "outputs": [
        {
          "internalType": "string",
          "name": "seedName",
          "type": "string"
        },
        {
          "internalType": "string",
          "name": "seedVariety",
          "type": "string"
        },
        {
          "internalType": "string",
          "name": "cropType",
          "type": "string"
        },
        {
          "internalType": "uint256",
          "name": "manufacturingDate",
          "type": "uint256"
        },
        {
          "internalType": "address",
          "name": "manufacturer",
          "type": "address"
        }
      ],
      "stateMutability": "view",
      "type": "function"
    },
    {
      "inputs": [
        {
          "internalType": "address",
          "name": "",
          "type": "address"
        }
      ],
      "name": "manufacturers",
      "outputs": [
        {
          "internalType": "bool",
          "name": "",
          "type": "bool"
        }
      ],
      "stateMutability": "view",
      "type": "function"
    },
    {
      "inputs": [],
      "name": "owner",
      "outputs": [
        {
          "internalType": "address",
          "name": "",
          "type": "address"
        }
      ],
      "stateMutability": "view",
      "type": "function"
    },
    {
      "inputs": [
        {
          "internalType": "bytes32",
          "name": "",
          "type": "bytes32"
        }
      ],
      "name": "retailerData",
      "outputs": [
        {
          "internalType": "uint256",
          "name": "receivedDate",
          "type": "uint256"
        },
        {
          "internalType": "uint256",
          "name": "sellingPrice",
          "type": "uint256"
        },
        {
          "internalType": "address",
          "name": "retailer",
          "type": "address"
        }
      ],
      "stateMutability": "view",
      "type": "function"
    },
    {
      "inputs": [
        {
          "internalType": "bytes32",
          "name": "_batchId",
          "type": "bytes32"
        },
        {
          "internalType": "uint256",
          "name": "_price",
          "type": "uint256"
        }
      ],
      "name": "retailerReceive",
      "outputs": [],
      "stateMutability": "nonpayable",
      "type": "function"
    },
    {
      "inputs": [
        {
          "internalType": "address",
          "name": "",
          "type": "address"
        }
      ],
      "name": "retailers",
      "outputs": [
        {
          "internalType": "bool",
          "name": "",
          "type": "bool"
        }
      ],
      "stateMutability": "view",
      "type": "function"
    },
    {
      "inputs": [
        {
          "internalType": "bytes32",
          "name": "_batchId",
          "type": "bytes32"
        },
        {
          "internalType": "string",
          "name": "_farmerName",
          "type": "string"
        },
        {
          "internalType": "uint8",
          "name": "_rating",
          "type": "uint8"
        },
        {
          "internalType": "string",
          "name": "_review",
          "type": "string"
        }
      ],
      "name": "submitReview",
      "outputs": [],
      "stateMutability": "nonpayable",
      "type": "function"
    }
  ],
  "bytecode": "0x608060405234801561001057600080fd5b50336000806101000a81548173ffffffffffffffffffffffffffffffffffffffff021916908373ffffffffffffffffffffffffffffffffffffffff1602179055506133d1806100606000396000f3fe608060405234801561001057600080fd5b50600436106101215760003560e01c80636b5eb09c116100ad578063a481852d11610071578063a481852d14610331578063cc64278414610361578063ce97512314610391578063efededc1146103c4578063ff5f204e146103e057610121565b80636b5eb09c1461027b5780637250e224146102ab5780638da5cb5b146102c75780638ec4f505146102e55780639a268f351461030157610121565b8063328c38c4116100f4578063328c38c4146101aa578063418bbc4e146101dd5780635af47336146102115780635f8a5afa14610243578063666e25e41461025f57610121565b8063067731ba146101265780631e1c941914610142578063271a3ca91461017257806329f95e451461018e575b600080fd5b610140600480360381019061013b919061228c565b610412565b005b61015c600480360381019061015791906122e8565b61064c565b604051610169919061238c565b60405180910390f35b61018c600480360381019061018791906123dd565b61066c565b005b6101a860048036038101906101a3919061241d565b61089a565b005b6101c460048036038101906101bf91906122e8565b610b0e565b6040516101d494939291906125c3565b60405180910390f35b6101f760048036038101906101f291906122e8565b610bf3565b60405161020895949392919061260f565b60405180910390f35b61022b600480360381019061022691906122e8565b610de1565b60405161023a93929190612677565b60405180910390f35b61025d600480360381019061025891906126e1565b610eb3565b005b6102796004803603810190610274919061273a565b610f9b565b005b610295600480360381019061029091906126e1565b611200565b6040516102a291906127c4565b60405180910390f35b6102c560048036038101906102c091906126e1565b611220565b005b6102cf611309565b6040516102dc91906127df565b60405180910390f35b6102ff60048036038101906102fa91906126e1565b61132d565b005b61031b600480360381019061031691906126e1565b611416565b60405161032891906127c4565b60405180910390f35b61034b600480360381019061034691906122e8565b611436565b6040516103589190612b02565b60405180910390f35b61037b600480360381019061037691906126e1565b611b4d565b60405161038891906127c4565b60405180910390f35b6103ab60048036038101906103a691906122e8565b611b6d565b6040516103bb9493929190612b24565b60405180910390f35b6103de60048036038101906103d99190612b77565b611cda565b005b6103fa60048036038101906103f591906122e8565b611f17565b60405161040993929190612c16565b60405180910390f35b600260003373ffffffffffffffffffffffffffffffffffffffff1673ffffffffffffffffffffffffffffffffffffffff16815260200190815260200160002060009054906101000a900460ff1661049e576040517f08c379a000000000000000000000000000000000000000000000000000000000815260040161049590612c99565b60405180910390fd5b600160058111156104b2576104b1612315565b5b6009600084815260200190815260200160002060009054906101000a900460ff1660058111156104e5576104e4612315565b5b14610525576040517f08c379a000000000000000000000000000000000000000000000000000000000815260040161051c90612d05565b60405180910390fd5b60405180606001604052804281526020018281526020013373ffffffffffffffffffffffffffffffffffffffff16815250600560008481526020019081526020016000206000820151816000015560208201518160010190816105889190612f31565b5060408201518160020160006101000a81548173ffffffffffffffffffffffffffffffffffffffff021916908373ffffffffffffffffffffffffffffffffffffffff16021790555090505060026009600084815260200190815260200160002060006101000a81548160ff0219169083600581111561060a57610609612315565b5b02179055507f68b89064ed200559105355a6459f74bda1c810d421a3dee949074f2068917c978233604051610640929190613012565b60405180910390a15050565b60096020528060005260406000206000915054906101000a900460ff1681565b600360003373ffffffffffffffffffffffffffffffffffffffff1673ffffffffffffffffffffffffffffffffffffffff16815260200190815260200160002060009054906101000a900460ff166106f8576040517f08c379a00000000000000000000000000000000000000000000000000000000081526004016106ef90613087565b60405180910390fd5b6003600581111561070c5761070b612315565b5b6009600084815260200190815260200160002060009054906101000a900460ff16600581111561073f5761073e612315565b5b1461077f576040517f08c379a0000000000000000000000000000000000000000000000000000000008152600401610776906130f3565b60405180910390fd5b60405180606001604052804281526020018281526020013373ffffffffffffffffffffffffffffffffffffffff1681525060076000848152602001908152602001600020600082015181600001556020820151816001015560408201518160020160006101000a81548173ffffffffffffffffffffffffffffffffffffffff021916908373ffffffffffffffffffffffffffffffffffffffff16021790555090505060046009600084815260200190815260200160002060006101000a81548160ff0219169083600581111561085857610857612315565b5b02179055507f2884ddbc509157107c02619c6095b6dd6757f2dc612454f650f81cffa056471d823360405161088e929190613012565b60405180910390a15050565b600160003373ffffffffffffffffffffffffffffffffffffffff1673ffffffffffffffffffffffffffffffffffffffff16815260200190815260200160002060009054906101000a900460ff16610926576040517f08c379a000000000000000000000000000000000000000000000000000000000815260040161091d9061315f565b60405180910390fd5b6000600581111561093a57610939612315565b5b6009600086815260200190815260200160002060009054906101000a900460ff16600581111561096d5761096c612315565b5b146109ad576040517f08c379a00000000000000000000000000000000000000000000000000000000081526004016109a4906131cb565b60405180910390fd5b6040518060a001604052808481526020018381526020018281526020014281526020013373ffffffffffffffffffffffffffffffffffffffff16815250600460008681526020019081526020016000206000820151816000019081610a129190612f31565b506020820151816001019081610a289190612f31565b506040820151816002019081610a3e9190612f31565b506060820151816003015560808201518160040160006101000a81548173ffffffffffffffffffffffffffffffffffffffff021916908373ffffffffffffffffffffffffffffffffffffffff16021790555090505060016009600086815260200190815260200160002060006101000a81548160ff02191690836005811115610aca57610ac9612315565b5b02179055507ffbc2dadadfd96079ea76357782648329d552bf1a8cb3ba6f28f2af6f2fdf08bc8433604051610b00929190613012565b60405180910390a150505050565b60066020528060005260406000206000915090508060000154908060010160009054906101000a900460ff1690806002018054610b4a90612d54565b80601f0160208091040260200160405190810160405280929190818152602001828054610b7690612d54565b8015610bc35780601f10610b9857610100808354040283529160200191610bc3565b820191906000526020600020905b815481529060010190602001808311610ba657829003601f168201915b5050505050908060030160009054906101000a900473ffffffffffffffffffffffffffffffffffffffff16905084565b6004602052806000526040600020600091509050806000018054610c1690612d54565b80601f0160208091040260200160405190810160405280929190818152602001828054610c4290612d54565b8015610c8f5780601f10610c6457610100808354040283529160200191610c8f565b820191906000526020600020905b815481529060010190602001808311610c7257829003601f168201915b505050505090806001018054610ca490612d54565b80601f0160208091040260200160405190810160405280929190818152602001828054610cd090612d54565b8015610d1d5780601f10610cf257610100808354040283529160200191610d1d565b820191906000526020600020905b815481529060010190602001808311610d0057829003601f168201915b505050505090806002018054610d3290612d54565b80601f0160208091040260200160405190810160405280929190818152602001828054610d5e90612d54565b8015610dab5780601f10610d8057610100808354040283529160200191610dab565b820191906000526020600020905b815481529060010190602001808311610d8e57829003601f168201915b5050505050908060030154908060040160009054906101000a900473ffffffffffffffffffffffffffffffffffffffff16905085565b6005602052806000526040600020600091509050806000015490806001018054610e0a90612d54565b80601f0160208091040260200160405190810160405280929190818152602001828054610e3690612d54565b8015610e835780601f10610e5857610100808354040283529160200191610e83565b820191906000526020600020905b815481529060010190602001808311610e6657829003601f168201915b5050505050908060020160009054906101000a900473ffffffffffffffffffffffffffffffffffffffff16905083565b60008054906101000a900473ffffffffffffffffffffffffffffffffffffffff1673ffffffffffffffffffffffffffffffffffffffff163373ffffffffffffffffffffffffffffffffffffffff1614610f41576040517f08c379a0000000000000000000000000000000000000000000000000000000008152600401610f3890613237565b60405180910390fd5b60018060008373ffffffffffffffffffffffffffffffffffffffff1673ffffffffffffffffffffffffffffffffffffffff16815260200190815260200160002060006101000a81548160ff02191690831515021790555050565b600260003373ffffffffffffffffffffffffffffffffffffffff1673ffffffffffffffffffffffffffffffffffffffff16815260200190815260200160002060009054906101000a900460ff16611027576040517f08c379a000000000000000000000000000000000000000000000000000000000815260040161101e90612c99565b60405180910390fd5b6002600581111561103b5761103a612315565b5b6009600085815260200190815260200160002060009054906101000a900460ff16600581111561106e5761106d612315565b5b146110ae576040517f08c379a00000000000000000000000000000000000000000000000000000000081526004016110a5906132a3565b60405180910390fd5b60405180608001604052804281526020018360ff1681526020018281526020013373ffffffffffffffffffffffffffffffffffffffff16815250600660008581526020019081526020016000206000820151816000015560208201518160010160006101000a81548160ff021916908360ff160217905550604082015181600201908161113b9190612f31565b5060608201518160030160006101000a81548173ffffffffffffffffffffffffffffffffffffffff021916908373ffffffffffffffffffffffffffffffffffffffff16021790555090505060036009600085815260200190815260200160002060006101000a81548160ff021916908360058111156111bd576111bc612315565b5b02179055507f39b02913350e817f80c1fd281a2fdfa5d7158dc45291b025d3ae1053a7af42c483336040516111f3929190613012565b60405180910390a1505050565b60016020528060005260406000206000915054906101000a900460ff1681565b60008054906101000a900473ffffffffffffffffffffffffffffffffffffffff1673ffffffffffffffffffffffffffffffffffffffff163373ffffffffffffffffffffffffffffffffffffffff16146112ae576040517f08c379a00000000000000000000000000000000000000000000000000000000081526004016112a590613237565b60405180910390fd5b6001600260008373ffffffffffffffffffffffffffffffffffffffff1673ffffffffffffffffffffffffffffffffffffffff16815260200190815260200160002060006101000a81548160ff02191690831515021790555050565b60008054906101000a900473ffffffffffffffffffffffffffffffffffffffff1681565b60008054906101000a900473ffffffffffffffffffffffffffffffffffffffff1673ffffffffffffffffffffffffffffffffffffffff163373ffffffffffffffffffffffffffffffffffffffff16146113bb576040517f08c379a00000000000000000000000000000000000000000000000000000000081526004016113b290613237565b60405180910390fd5b6001600360008373ffffffffffffffffffffffffffffffffffffffff1673ffffffffffffffffffffffffffffffffffffffff16815260200190815260200160002060006101000a81548160ff02191690831515021790555050565b60036020528060005260406000206000915054906101000a900460ff1681565b61143e611f61565b6040518060c00160405280600460008581526020019081526020016000206040518060a001604052908160008201805461147790612d54565b80601f01602080910402602001604051908101604052809291908181526020018280546114a390612d54565b80156114f05780601f106114c5576101008083540402835291602001916114f0565b820191906000526020600020905b8154815290600101906020018083116114d357829003601f168201915b5050505050815260200160018201805461150990612d54565b80601f016020809104026020016040519081016040528092919081815260200182805461153590612d54565b80156115825780601f1061155757610100808354040283529160200191611582565b820191906000526020600020905b81548152906001019060200180831161156557829003601f168201915b5050505050815260200160028201805461159b90612d54565b80601f01602080910402602001604051908101604052809291908181526020018280546115c790612d54565b80156116145780601f106115e957610100808354040283529160200191611614565b820191906000526020600020905b8154815290600101906020018083116115f757829003601f168201915b50505050508152602001600382015481526020016004820160009054906101000a900473ffffffffffffffffffffffffffffffffffffffff1673ffffffffffffffffffffffffffffffffffffffff1673ffffffffffffffffffffffffffffffffffffffff1681525050815260200160056000858152602001908152602001600020604051806060016040529081600082015481526020016001820180546116ba90612d54565b80601f01602080910402602001604051908101604052809291908181526020018280546116e690612d54565b80156117335780601f1061170857610100808354040283529160200191611733565b820191906000526020600020905b81548152906001019060200180831161171657829003601f168201915b505050505081526020016002820160009054906101000a900473ffffffffffffffffffffffffffffffffffffffff1673ffffffffffffffffffffffffffffffffffffffff1673ffffffffffffffffffffffffffffffffffffffff1681525050815260200160066000858152602001908152602001600020604051806080016040529081600082015481526020016001820160009054906101000a900460ff1660ff1660ff1681526020016002820180546117ec90612d54565b80601f016020809104026020016040519081016040528092919081815260200182805461181890612d54565b80156118655780601f1061183a57610100808354040283529160200191611865565b820191906000526020600020905b81548152906001019060200180831161184857829003601f168201915b505050505081526020016003820160009054906101000a900473ffffffffffffffffffffffffffffffffffffffff1673ffffffffffffffffffffffffffffffffffffffff1673ffffffffffffffffffffffffffffffffffffffff168152505081526020016007600085815260200190815260200160002060405180606001604052908160008201548152602001600182015481526020016002820160009054906101000a900473ffffffffffffffffffffffffffffffffffffffff1673ffffffffffffffffffffffffffffffffffffffff1673ffffffffffffffffffffffffffffffffffffffff168152505081526020016008600085815260200190815260200160002060405180608001604052908160008201805461198490612d54565b80601f01602080910402602001604051908101604052809291908181526020018280546119b090612d54565b80156119fd5780601f106119d2576101008083540402835291602001916119fd565b820191906000526020600020905b8154815290600101906020018083116119e057829003601f168201915b505050505081526020016001820160009054906101000a900460ff1660ff1660ff168152602001600282018054611a3390612d54565b80601f0160208091040260200160405190810160405280929190818152602001828054611a5f90612d54565b8015611aac5780601f10611a8157610100808354040283529160200191611aac565b820191906000526020600020905b815481529060010190602001808311611a8f57829003601f168201915b505050505081526020016003820160009054906101000a900473ffffffffffffffffffffffffffffffffffffffff1673ffffffffffffffffffffffffffffffffffffffff1673ffffffffffffffffffffffffffffffffffffffff168152505081526020016009600085815260200190815260200160002060009054906101000a900460ff166005811115611b4357611b42612315565b5b8152509050919050565b60026020528060005260406000206000915054906101000a900460ff1681565b6008602052806000526040600020600091509050806000018054611b9090612d54565b80601f0160208091040260200160405190810160405280929190818152602001828054611bbc90612d54565b8015611c095780601f10611bde57610100808354040283529160200191611c09565b820191906000526020600020905b815481529060010190602001808311611bec57829003601f168201915b5050505050908060010160009054906101000a900460ff1690806002018054611c3190612d54565b80601f0160208091040260200160405190810160405280929190818152602001828054611c5d90612d54565b8015611caa5780601f10611c7f57610100808354040283529160200191611caa565b820191906000526020600020905b815481529060010190602001808311611c8d57829003601f168201915b5050505050908060030160009054906101000a900473ffffffffffffffffffffffffffffffffffffffff16905084565b60046005811115611cee57611ced612315565b5b6009600086815260200190815260200160002060009054906101000a900460ff166005811115611d2157611d20612315565b5b14611d61576040517f08c379a0000000000000000000000000000000000000000000000000000000008152600401611d589061330f565b60405180910390fd5b60018260ff1610158015611d79575060058260ff1611155b611db8576040517f08c379a0000000000000000000000000000000000000000000000000000000008152600401611daf9061337b565b60405180910390fd5b60405180608001604052808481526020018360ff1681526020018281526020013373ffffffffffffffffffffffffffffffffffffffff16815250600860008681526020019081526020016000206000820151816000019081611e1a9190612f31565b5060208201518160010160006101000a81548160ff021916908360ff1602179055506040820151816002019081611e519190612f31565b5060608201518160030160006101000a81548173ffffffffffffffffffffffffffffffffffffffff021916908373ffffffffffffffffffffffffffffffffffffffff16021790555090505060056009600086815260200190815260200160002060006101000a81548160ff02191690836005811115611ed357611ed2612315565b5b02179055507f0eac7392fef339bec1eda5bfb51b5ca79642df48995ee13565312e7fe6d8cf6f8433604051611f09929190613012565b60405180910390a150505050565b60076020528060005260406000206000915090508060000154908060010154908060020160009054906101000a900473ffffffffffffffffffffffffffffffffffffffff16905083565b6040518060c00160405280611f74611fc7565b8152602001611f8161200c565b8152602001611f8e612043565b8152602001611f9b612084565b8152602001611fa86120bb565b815260200160006005811115611fc157611fc0612315565b5b81525090565b6040518060a0016040528060608152602001606081526020016060815260200160008152602001600073ffffffffffffffffffffffffffffffffffffffff1681525090565b60405180606001604052806000815260200160608152602001600073ffffffffffffffffffffffffffffffffffffffff1681525090565b604051806080016040528060008152602001600060ff16815260200160608152602001600073ffffffffffffffffffffffffffffffffffffffff1681525090565b60405180606001604052806000815260200160008152602001600073ffffffffffffffffffffffffffffffffffffffff1681525090565b604051806080016040528060608152602001600060ff16815260200160608152602001600073ffffffffffffffffffffffffffffffffffffffff1681525090565b6000604051905090565b600080fd5b600080fd5b6000819050919050565b61212381612110565b811461212e57600080fd5b50565b6000813590506121408161211a565b92915050565b600080fd5b600080fd5b6000601f19601f8301169050919050565b7f4e487b7100000000000000000000000000000000000000000000000000000000600052604160045260246000fd5b61219982612150565b810181811067ffffffffffffffff821117156121b8576121b7612161565b5b80604052505050565b60006121cb6120fc565b90506121d78282612190565b919050565b600067ffffffffffffffff8211156121f7576121f6612161565b5b61220082612150565b9050602081019050919050565b82818337600083830152505050565b600061222f61222a846121dc565b6121c1565b90508281526020810184848401111561224b5761224a61214b565b5b61225684828561220d565b509392505050565b600082601f83011261227357612272612146565b5b813561228384826020860161221c565b91505092915050565b600080604083850312156122a3576122a2612106565b5b60006122b185828601612131565b925050602083013567ffffffffffffffff8111156122d2576122d161210b565b5b6122de8582860161225e565b9150509250929050565b6000602082840312156122fe576122fd612106565b5b600061230c84828501612131565b91505092915050565b7f4e487b7100000000000000000000000000000000000000000000000000000000600052602160045260246000fd5b6006811061235557612354612315565b5b50565b600081905061236682612344565b919050565b600061237682612358565b9050919050565b6123868161236b565b82525050565b60006020820190506123a1600083018461237d565b92915050565b6000819050919050565b6123ba816123a7565b81146123c557600080fd5b50565b6000813590506123d7816123b1565b92915050565b600080604083850312156123f4576123f3612106565b5b600061240285828601612131565b9250506020612413858286016123c8565b9150509250929050565b6000806000806080858703121561243757612436612106565b5b600061244587828801612131565b945050602085013567ffffffffffffffff8111156124665761246561210b565b5b6124728782880161225e565b935050604085013567ffffffffffffffff8111156124935761249261210b565b5b61249f8782880161225e565b925050606085013567ffffffffffffffff8111156124c0576124bf61210b565b5b6124cc8782880161225e565b91505092959194509250565b6124e1816123a7565b82525050565b600060ff82169050919050565b6124fd816124e7565b82525050565b600081519050919050565b600082825260208201905092915050565b60005b8381101561253d578082015181840152602081019050612522565b60008484015250505050565b600061255482612503565b61255e818561250e565b935061256e81856020860161251f565b61257781612150565b840191505092915050565b600073ffffffffffffffffffffffffffffffffffffffff82169050919050565b60006125ad82612582565b9050919050565b6125bd816125a2565b82525050565b60006080820190506125d860008301876124d8565b6125e560208301866124f4565b81810360408301526125f78185612549565b905061260660608301846125b4565b95945050505050565b600060a08201905081810360008301526126298188612549565b9050818103602083015261263d8187612549565b905081810360408301526126518186612549565b905061266060608301856124d8565b61266d60808301846125b4565b9695505050505050565b600060608201905061268c60008301866124d8565b818103602083015261269e8185612549565b90506126ad60408301846125b4565b949350505050565b6126be816125a2565b81146126c957600080fd5b50565b6000813590506126db816126b5565b92915050565b6000602082840312156126f7576126f6612106565b5b6000612705848285016126cc565b91505092915050565b612717816124e7565b811461272257600080fd5b50565b6000813590506127348161270e565b92915050565b60008060006060848603121561275357612752612106565b5b600061276186828701612131565b935050602061277286828701612725565b925050604084013567ffffffffffffffff8111156127935761279261210b565b5b61279f8682870161225e565b9150509250925092565b60008115159050919050565b6127be816127a9565b82525050565b60006020820190506127d960008301846127b5565b92915050565b60006020820190506127f460008301846125b4565b92915050565b600082825260208201905092915050565b600061281682612503565b61282081856127fa565b935061283081856020860161251f565b61283981612150565b840191505092915050565b61284d816123a7565b82525050565b61285c816125a2565b82525050565b600060a083016000830151848203600086015261287f828261280b565b91505060208301518482036020860152612899828261280b565b915050604083015184820360408601526128b3828261280b565b91505060608301516128c86060860182612844565b5060808301516128db6080860182612853565b508091505092915050565b60006060830160008301516128fe6000860182612844565b5060208301518482036020860152612916828261280b565b915050604083015161292b6040860182612853565b508091505092915050565b61293f816124e7565b82525050565b600060808301600083015161295d6000860182612844565b5060208301516129706020860182612936565b5060408301518482036040860152612988828261280b565b915050606083015161299d6060860182612853565b508091505092915050565b6060820160008201516129be6000850182612844565b5060208201516129d16020850182612844565b5060408201516129e46040850182612853565b50505050565b60006080830160008301518482036000860152612a07828261280b565b9150506020830151612a1c6020860182612936565b5060408301518482036040860152612a34828261280b565b9150506060830151612a496060860182612853565b508091505092915050565b612a5d8161236b565b82525050565b6000610100830160008301518482036000860152612a818282612862565b91505060208301518482036020860152612a9b82826128e6565b91505060408301518482036040860152612ab58282612945565b9150506060830151612aca60608601826129a8565b50608083015184820360c0860152612ae282826129ea565b91505060a0830151612af760e0860182612a54565b508091505092915050565b60006020820190508181036000830152612b1c8184612a63565b905092915050565b60006080820190508181036000830152612b3e8187612549565b9050612b4d60208301866124f4565b8181036040830152612b5f8185612549565b9050612b6e60608301846125b4565b95945050505050565b60008060008060808587031215612b9157612b90612106565b5b6000612b9f87828801612131565b945050602085013567ffffffffffffffff811115612bc057612bbf61210b565b5b612bcc8782880161225e565b9350506040612bdd87828801612725565b925050606085013567ffffffffffffffff811115612bfe57612bfd61210b565b5b612c0a8782880161225e565b91505092959194509250565b6000606082019050612c2b60008301866124d8565b612c3860208301856124d8565b612c4560408301846125b4565b949350505050565b7f4e6f74206469737472696275746f720000000000000000000000000000000000600082015250565b6000612c83600f8361250e565b9150612c8e82612c4d565b602082019050919050565b60006020820190508181036000830152612cb281612c76565b9050919050565b7f496e76616c696420737461676500000000000000000000000000000000000000600082015250565b6000612cef600d8361250e565b9150612cfa82612cb9565b602082019050919050565b60006020820190508181036000830152612d1e81612ce2565b9050919050565b7f4e487b7100000000000000000000000000000000000000000000000000000000600052602260045260246000fd5b60006002820490506001821680612d6c57607f821691505b602082108103612d7f57612d7e612d25565b5b50919050565b60008190508160005260206000209050919050565b60006020601f8301049050919050565b600082821b905092915050565b600060088302612de77fffffffffffffffffffffffffffffffffffffffffffffffffffffffffffffffff82612daa565b612df18683612daa565b95508019841693508086168417925050509392505050565b6000819050919050565b6000612e2e612e29612e24846123a7565b612e09565b6123a7565b9050919050565b6000819050919050565b612e4883612e13565b612e5c612e5482612e35565b848454612db7565b825550505050565b600090565b612e71612e64565b612e7c818484612e3f565b505050565b5b81811015612ea057612e95600082612e69565b600181019050612e82565b5050565b601f821115612ee557612eb681612d85565b612ebf84612d9a565b81016020851015612ece578190505b612ee2612eda85612d9a565b830182612e81565b50505b505050565b600082821c905092915050565b6000612f0860001984600802612eea565b1980831691505092915050565b6000612f218383612ef7565b9150826002028217905092915050565b612f3a82612503565b67ffffffffffffffff811115612f5357612f52612161565b5b612f5d8254612d54565b612f68828285612ea4565b600060209050601f831160018114612f9b5760008415612f89578287015190505b612f938582612f15565b865550612ffb565b601f198416612fa986612d85565b60005b82811015612fd157848901518255600182019150602085019450602081019050612fac565b86831015612fee5784890151612fea601f891682612ef7565b8355505b6001600288020188555050505b505050505050565b61300c81612110565b82525050565b60006040820190506130276000830185613003565b61303460208301846125b4565b9392505050565b7f4e6f742072657461696c65720000000000000000000000000000000000000000600082015250565b6000613071600c8361250e565b915061307c8261303b565b602082019050919050565b600060208201905081810360008301526130a081613064565b9050919050565b7f4e6f742064697370617463686564000000000000000000000000000000000000600082015250565b60006130dd600e8361250e565b91506130e8826130a7565b602082019050919050565b6000602082019050818103600083015261310c816130d0565b9050919050565b7f4e6f74206d616e75666163747572657200000000000000000000000000000000600082015250565b600061314960108361250e565b915061315482613113565b602082019050919050565b600060208201905081810360008301526131788161313c565b9050919050565b7f4261746368206578697374730000000000000000000000000000000000000000600082015250565b60006131b5600c8361250e565b91506131c08261317f565b602082019050919050565b600060208201905081810360008301526131e4816131a8565b9050919050565b7f4f6e6c79206f776e657200000000000000000000000000000000000000000000600082015250565b6000613221600a8361250e565b915061322c826131eb565b602082019050919050565b6000602082019050818103600083015261325081613214565b9050919050565b7f4e6f742072656365697665640000000000000000000000000000000000000000600082015250565b600061328d600c8361250e565b915061329882613257565b602082019050919050565b600060208201905081810360008301526132bc81613280565b9050919050565b7f4e6f7420617661696c61626c6500000000000000000000000000000000000000600082015250565b60006132f9600d8361250e565b9150613304826132c3565b602082019050919050565b60006020820190508181036000830152613328816132ec565b9050919050565b7f526174696e6720312d3500000000000000000000000000000000000000000000600082015250565b6000613365600a8361250e565b91506133708261332f565b602082019050919050565b6000602082019050818103600083015261339481613358565b905091905056fea26469706673582212206cf88249710cefb1e7afd52e4d77e41a8b2b889467c3c532968b1cfff858862164736f6c63430008140033",
  "linkReferences": {},
  "deployedLinkReferences": {}
}